:100000006F007064000000004E0400005204000005
:1000100000000000000000000000000000000000E0
:1000200000000000000000000000000000000000D0
:10003000140E000000000000160E0000000000007A
:10004000180E00001A0E00001C0E00001E0E00000C
:10005000200E0000220E0000240E0000260E0000DC
:10006000280E00002A0E00002C0E00002E0E0000AC
:10007000300E0000320E0000340E0000360E00007C
:10008000540D00003A0E00003C0E00003E0E000031
:10009000400E0000420E00007C0500000000000041
:1000A000511126C022C206C4828282441244A24058
:1000B000310182802A86014593F6150091C232955E
:1000C00085810606F5F9828000000000634E050276
:1000D00063C305042E86AA857D5515C285466378BF
:1000E000B6006356C00006068606E36CB6FE014500
:1000F00063E4C500918D558D85820582F5FA828075
:100100008682C93F2E8582823305A04063D70500D1
:10011000B305B040C1B7B305B0408682653F330533
:10012000A0408282868263C70500634905005D376F
:100130002E858282B305B040E35B05FE3305A04007
:10014000513F3305B040828200003D432A876373EC
:10015000C3029377F700BDEFADE5937606FF3D8AC6
:10016000BA960CC34CC30CC74CC74107E36BD7FE10
:1001700011E28280B306C3408A0697020000969679
:100180006780A6002307B700A306B7002306B700C1
:10019000A305B7002305B700A304B7002304B700E5
:1001A000A303B7002303B700A302B7002302B700DD
:1001B000A301B7002301B700A300B7002300B700D5
:1001C000828093F5F50F93968500D58D9396050162
:1001D000D58D61B793962700970200009696868288
:1001E000E78086FA9680C1171D8F3E96E374C3F8A8
:1001F000A5B7EFF2FFEA11112A848545454502C0F3
:1002000002C202C402C602C802CA02CCEF10802792
:10021000854537052000EF10C02891472310F100D5
:100220008D44F1478A85371501403EC426C2EF0050
:1002300070620947F1478A85371501402310E100B4
:100240003EC426C2EF001061B7270600938707A8B7
:1002500006043EC61364040CB707FFBF3EC8231A4A
:1002600081009307004037540040231BF1006C00CD
:10027000916713050440231CF100EF00D06B1305B8
:1002800004408545EF00307B854513050440EF10A1
:100290000000710119BDEFF2BFE0B75400402A849D
:1002A000938704403E85B7050200EF106003B757FF
:1002B0000040938707407DF5138504408545B704CA
:1002C0000300EF0010798504B757004013850740FD
:1002D000A685EF00507FB75700407DD593151400D9
:1002E00093E505FC014693F5E50F138507403704B8
:1002F0000700EF00107C1304240837550040A28546
:1003000013050540EF00307C6DD945B3EFF25FD99E
:1003100037550040854513050540EF00707571B3F2
:10032000EFF21FD893558500AA8437550040BD8948
:100330001305054037040700EF0050771304440805
:10034000B757004013850740A285EF00D077B75715
:1003500000407DD593F5F40F13850740370407005F
:10036000EF00D0741304440837550040A2851305EC
:100370000540EF0050756DD90DBBEFF27FD22A8496
:1003800071114CCD14C5B285368532C02533024675
:1003900048C42320040050C823220400232804005A
:1003A000232C0400110111B31C4999C30845828014
:1003B000084D82801C4991E71C45084D3385A740B4
:1003C0008280014582801C499DCB184D1C456314D9
:1003D000F70085471CC982801441584D13861600CA
:1003E00010C13386F5000346060036972300C70088
:1003F000144158456394E6002320050085075849B9
:10040000E3CCE7FC1C4D85071CCDC1B7184D8147D7
:100410006346E00282805441584D1386160050C155
:100420003697834607003387F5002300D7005441F1
:1004300058456394E6002322050085075849E3CC1C
:10044000E7FC1C4D23280500FD171CCD828073009E
:10045000203001A0EFF2DFC41301C1FD61468145E8
:100460006800E5318545414502C002C202C4EF1073
:100470006001854513050020EF10C0000145EF0025
:100480003075C1478A853715014037240140231054
:10049000F10002C4EF00103C13050440EF00F0220D
:1004A000B7070E003ECC6C008547130504402300BF
:1004B000F10202C602C802CA02CEEF0070239D46B6
:1004C0000546894513050440EF00D02AB705000210
:1004D00013050440EF00D036854513050440EF00B6
:1004E0001035854513050440EF00902513050440A1
:1004F000EF001026930404402685EF0010266DFDC2
:100500001305044037240140EF00B02513040440D4
:100510002285EF00B0256DFD1301410279B6EFF29F
:100520003FB831112E84AA8485450545EF007077C8
:100530002C00370500402316910023148100231559
:10054000010023170100EF00907905468545370526
:100550000040EF10C000930760222310F10089478C
:100560002301F1000A8585473EC2EF00F05A854518
:1005700037050040EF00F07C510105BE1301C1FCBE
:100580002ACC2ECA3705004085453EC206D816D66D
:100590001AD41ED222D026CE32C836C63AC4EF00B4
:1005A000707D85476316F5082AC0854537050040EC
:1005B000EF00107E138701838357070082463704BC
:1005C0000020C207C1839384018313040404638160
:1005D000D70ABDCF89466380D710138741828357DE
:1005E000070083560400938441828507C207C183B4
:1005F000C2062310F700C1821307803E81E6096717
:100600001307077163C6E7023704002013040400D0
:10061000035604009305000837150140EF00103120
:10062000835704002390040093C717002310F4009D
:100630000254C250B25222539253F2446245D24500
:100640004246B246224792471301410373002030CD
:1006500083570400C207C183C9D3014536C0253979
:10066000824623930182138701832310D700B5B7F5
:10067000B707002083D5270003D56182253C1317D7
:1006800035003A959305A00FB1349386C18288C294
:1006900090429306F02C938761821387C18263F6A0
:1006A000C60023900700232007000843420541812C
:1006B0001529BD319387618203D707000507239071
:1006C000E70083570400C207C183E39807F0894716
:1006D0002390F40019B71D391387018323100700F5
:1006E000EDBDEFF2FF9B51118545414502C002C2AD
:1006F00002C4EF003059930700082310F100C147EE
:100700003EC48A858D47371501403EC2EF009014E4
:10071000310161BAEFF2DF983707002093074704F1
:10072000130181FDB71600083EC0130747040544B6
:100730006D46850683070700D1E7824493071006BC
:1007400003870400631CF70037150000B70700207B
:1007500005471305457B2390E704392303870400ED
:1007600093072006631BF70037150000B70700202A
:100770001305C57B23900704C5290387040093074D
:100780006006631DF702854763DA87021245370466
:10079000002013042400AD2B420541812310A40046
:1007A000371500001305457CC12103550400FD5594
:1007B000F921371500001305057C7D211301810205
:1007C0006FF0BF8E81179305170093F7F70F2E87F1
:1007D000E362F6F6B3D7F600858BA9DF9307140022
:1007E000A38F05FE0A042C102E94232CE4FC1394F2
:1007F0008701618481B7EFF2BF8A0945EF0070314C
:10080000CD28952CEF00D0721D263715000013055A
:10081000057A9929B707002003A5470199453704B0
:100820000020B129371500001305C57A3529553D3B
:10083000153101457D3A05469305000837150140FD
:10084000EF00D00E9305F00213053006C939294593
:10085000EF005071B707002005472390E704C12639
:10086000938481826352A002692EA947630EF5002A
:10087000B70700203547938727046318E5022380D4
:10088000070085472390F40083D70400C207C18383
:10089000F9D713054404C92E371500001305057B4D
:1008A000E1268D3D239004005DBF03C70700FD4591
:1008B0001316870161861307440432972300A700AB
:1008C00003C707000507620761872380E70003C6A7
:1008D0000700130744046206618663D4C5002380C1
:1008E000B70083C70700E207E187BA9723800700B4
:1008F00061BFB71702409843B706FFFC6111136749
:10090000170098C3D843758FD8C39843B706F7FE2E
:10091000FD16758F98C39843B706FCFFFD16758FBB
:1009200098C3D843C176FD16758FD8C337079F008B
:1009300098C7984F1367070298CF3717014083264F
:1009400007401306074093F6F6F02320D74083268E
:10095000074093E606082320D740094718CA02C07B
:1009600002C2984FB706014021661367170098CF5F
:10097000D842518FD8C29843C16637060200558FBE
:1009800098C3B716024009679C42F18F3EC2824766
:1009900085073EC0924781E78247E397E7FEB71796
:1009A00002409C431397E7006358070685473EC201
:1009B000124785476314F706B72702409843C1766C
:1009C000FD16719B98C398431367170098C3B71718
:1009D0000240D843D8C3D843758FD8C3D843C16623
:1009E000558FD8C39843B7060001558F98C39843D5
:1009F00093166700E3DD06FED843B7160240719BED
:100A0000D8C3D84313672700D8C32147DC42B18B32
:100A1000E39EE7FE2101828002C259BFB727024050
:100A20009843C176FD16719B98C3984313671700CE
:100A300098C3B7170240D843D8C3D843758FD8C3DB
:100A4000D843B7060001D8C39843558F98C398433D
:100A500093166700E3DD06FED843B7160240719B8C
:100A6000D8C3D84313672700D8C32147DC42B18BD2
:100A7000E39EE7FE45B7EFF2AFE2371702405C4373
:100A8000370400209146B18B130444016385D700DD
:100A9000A1466383D704B7376E01938707601CC0F4
:100AA000B7160240DC420840918313F7F700B707FE
:100AB000002093874700BA9783C50700DC4293F56F
:100AC000F50F93F707083357B50081E7EFF08FE094
:100AD0002A8718C06FF06FDD5C43B777DC0293871D
:100AE00007C075BFEFF2CFDB93058016EFF04FE143
:100AF0004205056441819307300B1304C47C63F302
:100B0000A7029305400BEFF0AFDF420541810605D8
:100B10002A948357040005657D151D8D420541818A
:100B20006FF0AFD806052A9403550400D5BFEFF245
:100B30002FD711651301C1FD85451305050202C4B8
:100B400002C602C802CA02CC02CE02D002C002C251
:100B5000EF005013930700022314F10037140140F3
:100B60008D473EC62C00E147130504403EC8DD21F9
:100B7000930700042314F1002C009147130504404F
:100B80003EC8C929F16737440140938707203ECA10
:100B90004C08B7070C00130504803ECE02CC23108E
:100BA0000102EF00D01F0546930550521305048043
:100BB000EF00302F930700222310F1008547230117
:100BC000F1000A8585473EC2EF00007593060002DA
:100BD00005469385418313854187EFF00FFA93060D
:100BE000000205469385418513854189EFF0EFF8B2
:100BF000854513050480EF001029130141026FF0B1
:100C0000CFCAEFF2EFC97111930531001385418707
:100C1000EFF0CFFF0305310011016FF00FC9EFF2C4
:100C20002FC813854187EFF02FF86FF00FC8EFF250
:100C30002FC77111A301A10013854189EFF08FF730
:100C40006358A0009305310013854189EFF0AFF799
:100C50003745014005469305707213050580EF0086
:100C6000502411016FF06FC4EFF28FC32A84030583
:100C7000040019E16FF06FC30504553FCDBFEFF2DB
:100C80002FC251112EC42A84635705061305D002C2
:100C9000793F33048040A947B7D49A3B3EC002C293
:100CA000938404A0A247635AF000831701002247EF
:100CB0006315F7001305E0029D3F63659404A68564
:100CC0002285EFF02FC11305050362056185853785
:100CD0002285A685EFF0CFC285472A843EC22685AD
:100CE000A945EFF02FBF8247AA84FD17C207C18331
:100CF0003EC0CDFB29A045F1130500030D3F310196
:100D00006FF0AFBA9247E1DF130500030D37C1BFA3
:100D100081468147A94525439302D0023307D50078
:100D20000307070019C36394B6003E85828099E6E5
:100D300063165700B307F0408506CDB7130707FDCC
:100D40001376F70FE36AC3FE13962700B297860760
:100D5000BA97DDB71301C1FC22D0374401402ACC39
:100D60002ECA130504809305505206D816D61AD4FD
:100D70001ED226CE32C836C63AC43EC2EF00101785
:100D80001DC113050480EF00D015A301A100138538
:100D90004187EFF02FE26358A000930531001385DF
:100DA0004187EFF04FE2374401409305707213051D
:100DB0000480EF00B0130DC513854189EFF0CFDE3D
:100DC0006350A0049305310013854189EFF00FE4CF
:100DD0008305310013050480C205C181EF00D00FE7
:100DE0000254C250B25222539253F2446245D24549
:100DF0004246B24622479247130141037300203016
:100E000001469305707213050480EF009009C9BF75
:100E100001A001A001A001A001A001A001A001A0CA
:100E200001A001A001A001A001A001A001A001A0BA
:100E300001A001A001A001A001A001A001A001A0AA
:100E400001A001A001A0970100209381A19F13811F
:100E500001FC17150000130525AE97F5FF1F9385BC
:100E6000651A17F6FF1F1306E61D63FAC5008322F5
:100E7000050023A0550011059105E3EAC5FE17F50D
:100E8000FF1F1305251C9385C18B6377B5002320B5
:100E900005001105E36DB5FE930200087390023062
:100EA0008D427390428097F2FFFF9382A21593E2E6
:100EB000320073905230EFF0DFA39702000093826C
:100EC000C2937390123473002030B7270140938788
:100ED0000740631EF500EFF2AF9C85451305002027
:100EE000C523814513050020E12B6FF00F9C828004
:100EF0005C413707F1FF1307F7EF7D8FDC41944129
:100F0000A207D58FD98F5CC11C4537F7F1FF1307B6
:100F1000D77FD4457D8F9C49D58F94458606D58F44
:100F2000D98F1CC55C55370710FF7D177D8F83C790
:100F30004501FD1793F7F70FD207D98F5CD5828053
:100F40001C4589C593E717001CC58280F99BEDBF3E
:100F50001C4593E787001CC5828008450D810589E3
:100F600082801C4593E747001CC5828008450981A3
:100F700005898280A54763F8B704138765FF931737
:100F800017008322C500BA971D433313F3001343A0
:100F9000F3FF33735300B397F600B3E767005CC504
:100FA000994763E3C7047D16931726003E96585968
:100FB000FD47B397C70093C7F7FFF98FB395C500F7
:100FC000DD8D4CD982809397150003230501AE97E0
:100FD0001D473317F7001347F7FF33776700B397C1
:100FE000F6005D8F18C96DBFB14763E2C702651691
:100FF000931726003E961859FD47B397C70093C72D
:10100000F7FFF98FB395C500DD8D0CD982804D16A1
:101010001317260054553A96FD47B397C70093C758
:10102000F7FFF58FB395C500DD8D4CD582805C410F
:1010300089C593E707405CC1828093F7F7BFE5BF9E
:101040005C41370700FA7D17F98F5CC15C41DD8D8B
:101050004CC182809C45611122C226C013F7070152
:1010600013F3F70001C7D8413363E30003D605004B
:101070001377F60F29C78323050001471304800265
:10108000930480048546B395E600B376B600639278
:10109000D50293122700BD46B396560093C6F6FFBD
:1010A000B3F37600B3125300B3E37200639787067D
:1010B0004CC90507A146E317D7FC23207500130789
:1010C000F00F6378C70483234500A1461304800210
:1010D000930480040547B312D70033775600639416
:1010E000E202139726000117BD45B395E50093C5AD
:1010F000F5FFB3F375003317E300B3637700639232
:101100008702232A550085064147E395E6FC232202
:1011100075001244824421018280E39C97F80CC937
:1011200049BFE39297FE23285500F1BF19C20CC9AD
:1011300082804CC98280EFE2BFF6111183544500D2
:101140002A8428002EC0792CC246C204C18093F4A0
:1011500004FCB7450F00938505243685C20436C2CA
:10116000C180EFE03FF7458D420541812312A40085
:10117000835704009246C207C183F99BC207C1830B
:101180002310F40082479043E1679387076A931521
:10119000160063E0C7063685EFE0DFF3AA87420555
:1011A000418191466373D5009147139507014181B1
:1011B000231EA40083570400024793E7170023105F
:1011C000F40083570400835647000356A700C20764
:1011D000C183D18E93F757BFD58F2310F400835668
:1011E00087008357C700D58F2314F40071016FE087
:1011F000DFEB824703D56700B167FD176310F50287
:10120000B2953685EFE01FED420541819317450108
:1012100099E313651500A1675D8D59BFB387C500BC
:101220008E07B385C7003685EFE0DFEA42054181CE
:1012300091675D8DE1BF8357050091C593E7170066
:101240002310F5008280C207C183F99BC207C183C6
:10125000C5BF8357050091C593E707102310F5001C
:101260008280C207C18393F7F7EFC207C183FDB73E
:101270008357050091C593E707202310F50082806E
:10128000C207C18393F7F7DFC207C183FDB7835756
:10129000050091C593E707402310F5008280C2073F
:1012A000C18393F7F7BFC207C183FDB72318B50009
:1012B000828093F7E50F19C293E71500C207C18337
:1012C0002318F500828083574501035585014205A7
:1012D0005D8D6D8D220521810D8D13351500828068
:1012E000611102C002C293D7C5012AC23EC0824723
:1012F000A205A18199CB9247D1073EC2924788436C
:1013000021016D8D3335A00082809247C181E107B4
:10131000EDB723AAA18A82809387418B9443034728
:10132000050089E683472500920731A894430546C6
:101330006391C60483472500034615009207631492
:10134000D60093E707F8B7E600E093F7F70FBA96F1
:101350002380F6408546935757003397E600544163
:10136000ADC6938707048A07B7E600E0B69798C32F
:1013700082808C4389466393D50283461500834758
:1013800025006365D6008A06B69779BF9386E60383
:101390008A06B69793F7F70F920765B790438D4685
:1013A000631ED60083461500834725006364D6007C
:1013B0008606D9BF9386C6078606E1BF9443914748
:1013C000E39AF6F88347150085B79387070661BF50
:1013D000B7160240DC4241771307F77FF98F5D8D26
:1013E000C8C28280EFE2DFCB371702405C439146F0
:1013F0002A84B18B6385D700A146638FD706B737A0
:101400006E01938707601CC0B7160240DC429183CF
:1014100013F7F700B70700209387C702BA9783C571
:101420000700DC42184093F5F50F93F70708335592
:10143000B70081E73A85EFE0FFC948C008C448C457
:10144000B7170240DC43AD83FD8B13D737008A0703
:10145000F18BD98F93F637010D476373D700D117FE
:101460003707002013078701BA9783C50700EFE00D
:101470007FC608C86FE07FC35C43B777DC02938701
:1014800007C051B799C5371702401C4F5D8D08CF73
:101490008280B7170240984F1345F5FF798D88CFAA
:1014A000828099C5371702405C4F5D8D48CF82809E
:1014B000B7170240D84F1345F5FF798DC8CF82800A
:1014C00099C5371702405C475D8D48C78280B717C2
:1014D0000240D8471345F5FF798DC8C782808357EE
:1014E000050037370140130707C0C207C1836306F1
:1014F000E500370700406317E50003D7250093F7A1
:10150000F7F8D98F03D7650093F7F7CFC207C183E8
:10151000D98F2310F50083D745002316F50283D712
:1015200005002314F502B7370140938707C06316FF
:10153000F50083C785002318F5028547231AF500B7
:1015400082808357050091C593E717002310F500AB
:101550008280C207C183F99BC207C183C5BF83577D
:10156000C50009C6DD8D2316B500828093C5F5FF41
:10157000FD8DD5BF835705010355C500ED8F42058D
:10158000418189C76D8D3335A000828001458280FD
:1015900093C5F5FFC205C1812318B5008280EFE233
:1015A0003FB083560501F577FD17F58F83D66500AB
:1015B00003D7C5002111D58F2318F5008356C50028
:1015C000FD779387379FF58F83D645002A842EC0F9
:1015D000D58F83D68500D58F83D6A500D58F2316CA
:1015E000F50083574501C207C18393F7F7CF5D8F9D
:1015F000231AE5004800FD33B74701409387078071
:1016000082456315F406C2470357C40013951700BB
:101610003E9542070E0541873E958C41635A07046B
:101620008605EFE03FAB930540062AC0EFE09FAA96
:10163000824793144500930540063E85EFE05FAC7A
:101640008357C400C207C18763D607020E059305FE
:10165000400613052503EFE0FFA71D89C98CC204CE
:10166000C1802314940061016FE03FA4B24769BFB9
:101670008A0545BF12059305400613052503EFE0D3
:101680007FA53D89E1BF81C98357C5000967D98F0F
:101690002316F50082800357C500F977FD17F98FEF
:1016A000C5BF13F7F50F85471583B395B7006319C9
:1016B000F7009307C500984301CED98D8CC3828073
:1016C000894693074501E318D7FE93070501E5B75F
:1016D00093C5F5FFF98DDDB793F5F51F2312B5001E
:1016E0008280035545001375F51F828013F7F50FAF
:1016F00085461583B397B6006313D7020357C50019
:10170000F98F0357050001454207418381CB054509
:10171000A181B315B5006D8F3335E0008280894615
:101720006315D70003570501E1BF03574501C9BF42
:10173000EFE21F97B707002003A54701B7157A000E
:1017400093850520EFE01F991375F50F238DA18A6E
:1017500093175500898F8A073E950E05239CA18A11
:101760006FE0BF94EFE2DF9337F400E05C40AA85BE
:10177000F99B5CC003D5818BEFE0DF9308C823247D
:1017800004001C4093E717001CC0B7F700E0D843E3
:10179000058B75DF9843799B98C36FE01F9100001C
:1017A00053797374656D436C6B3A00000D0A000049
:1017B0002000000053544152540A0D0053544F501E
:1017C0000A0D0000467265713A000000FF07230809
:1017D00046086A088E08B108D508F9081C093F09AF
:1017E00063098609A909CC09EE09110A330A560AC8
:1017F000780A9A0ABB0ADD0AFE0A1F0B400B600B2F
:10180000810BA10BC00BE00BFF0B1E0C3C0C5A0C08
:10181000780C950CB20CCF0CEC0C080D230D3E0D82
:10182000590D730D8D0DA70DC00DD80DF10D080EBE
:101830001F0E360E4C0E620E770E8C0EA00EB40EDE
:10184000C70EDA0EEC0EFE0E0F0F1F0F2F0F3F0FFD
:101850004D0F5C0F690F770F830F8F0F9A0FA50F36
:10186000AF0FB90FC20FCA0FD20FD90FDF0FE50F9D
:10187000EB0FEF0FF30FF70FFA0FFC0FFD0FFE0F3B
:10188000FF0FFE0FFD0FFC0FFA0FF70FF30FEF0F17
:10189000EB0FE50FDF0FD90FD20FCA0FC20FB90F31
:1018A000AF0FA50F9A0F8F0F830F770F690F5C0F84
:1018B0004D0F3F0F2F0F1F0F0F0FFE0EEC0EDA0E06
:1018C000C70EB40EA00E8C0E770E620E4C0E360EA6
:1018D0001F0E080EF10DD80DC00DA70D8D0D730D47
:1018E000590D3E0D230D080DEC0CCF0CB20C950CD0
:1018F000780C5A0C3C0C1E0CFF0BE00BC00BA10B20
:10190000810B600B400B1F0BFE0ADD0ABB0A9A0A13
:10191000780A560A330A110AEE09CC09A909860980
:1019200063093F091C09F908D508B1088E086A083F
:04193000460823083A
:1019340001003C0001020304050607080102030438
:1019440005060708006CDC020204060804080C10F3
:101954000810182010203040204060800102030449
:101964000506070801020304050607080000000035
:00000001FF
